{
  "contractName": "Voting",
  "abi": [
    {
      "anonymous": false,
      "inputs": [
        {
          "indexed": true,
          "internalType": "address",
          "name": "previousOwner",
          "type": "address"
        },
        {
          "indexed": true,
          "internalType": "address",
          "name": "newOwner",
          "type": "address"
        }
      ],
      "name": "OwnershipTransferred",
      "type": "event"
    },
    {
      "anonymous": false,
      "inputs": [
        {
          "indexed": false,
          "internalType": "uint256",
          "name": "proposalId",
          "type": "uint256"
        }
      ],
      "name": "ProposalRegistered",
      "type": "event"
    },
    {
      "anonymous": false,
      "inputs": [
        {
          "indexed": false,
          "internalType": "address",
          "name": "voter",
          "type": "address"
        },
        {
          "indexed": false,
          "internalType": "uint256",
          "name": "proposalId",
          "type": "uint256"
        }
      ],
      "name": "Voted",
      "type": "event"
    },
    {
      "anonymous": false,
      "inputs": [
        {
          "indexed": false,
          "internalType": "address",
          "name": "voterAddress",
          "type": "address"
        }
      ],
      "name": "VoterRegistered",
      "type": "event"
    },
    {
      "anonymous": false,
      "inputs": [
        {
          "indexed": false,
          "internalType": "enum Voting.WorkflowStatus",
          "name": "previousStatus",
          "type": "uint8"
        },
        {
          "indexed": false,
          "internalType": "enum Voting.WorkflowStatus",
          "name": "newStatus",
          "type": "uint8"
        }
      ],
      "name": "WorkflowStatusChange",
      "type": "event"
    },
    {
      "inputs": [],
      "name": "owner",
      "outputs": [
        {
          "internalType": "address",
          "name": "",
          "type": "address"
        }
      ],
      "stateMutability": "view",
      "type": "function",
      "constant": true
    },
    {
      "inputs": [
        {
          "internalType": "uint256",
          "name": "",
          "type": "uint256"
        }
      ],
      "name": "proposalsArray",
      "outputs": [
        {
          "internalType": "string",
          "name": "description",
          "type": "string"
        },
        {
          "internalType": "uint256",
          "name": "voteCount",
          "type": "uint256"
        }
      ],
      "stateMutability": "view",
      "type": "function",
      "constant": true
    },
    {
      "inputs": [],
      "name": "renounceOwnership",
      "outputs": [],
      "stateMutability": "nonpayable",
      "type": "function"
    },
    {
      "inputs": [
        {
          "internalType": "address",
          "name": "newOwner",
          "type": "address"
        }
      ],
      "name": "transferOwnership",
      "outputs": [],
      "stateMutability": "nonpayable",
      "type": "function"
    },
    {
      "inputs": [],
      "name": "winningProposalID",
      "outputs": [
        {
          "internalType": "uint256",
          "name": "",
          "type": "uint256"
        }
      ],
      "stateMutability": "view",
      "type": "function",
      "constant": true
    },
    {
      "inputs": [],
      "name": "workflowStatus",
      "outputs": [
        {
          "internalType": "enum Voting.WorkflowStatus",
          "name": "",
          "type": "uint8"
        }
      ],
      "stateMutability": "view",
      "type": "function",
      "constant": true
    },
    {
      "inputs": [
        {
          "internalType": "address",
          "name": "_addr",
          "type": "address"
        }
      ],
      "name": "getVoter",
      "outputs": [
        {
          "components": [
            {
              "internalType": "bool",
              "name": "isRegistered",
              "type": "bool"
            },
            {
              "internalType": "bool",
              "name": "hasVoted",
              "type": "bool"
            },
            {
              "internalType": "uint256",
              "name": "votedProposalId",
              "type": "uint256"
            }
          ],
          "internalType": "struct Voting.Voter",
          "name": "",
          "type": "tuple"
        }
      ],
      "stateMutability": "view",
      "type": "function",
      "constant": true
    },
    {
      "inputs": [
        {
          "internalType": "uint256",
          "name": "_id",
          "type": "uint256"
        }
      ],
      "name": "getOneProposal",
      "outputs": [
        {
          "components": [
            {
              "internalType": "string",
              "name": "description",
              "type": "string"
            },
            {
              "internalType": "uint256",
              "name": "voteCount",
              "type": "uint256"
            }
          ],
          "internalType": "struct Voting.Proposal",
          "name": "",
          "type": "tuple"
        }
      ],
      "stateMutability": "view",
      "type": "function",
      "constant": true
    },
    {
      "inputs": [],
      "name": "getWinner",
      "outputs": [
        {
          "components": [
            {
              "internalType": "string",
              "name": "description",
              "type": "string"
            },
            {
              "internalType": "uint256",
              "name": "voteCount",
              "type": "uint256"
            }
          ],
          "internalType": "struct Voting.Proposal[]",
          "name": "",
          "type": "tuple[]"
        }
      ],
      "stateMutability": "view",
      "type": "function",
      "constant": true
    },
    {
      "inputs": [
        {
          "internalType": "address",
          "name": "_addr",
          "type": "address"
        }
      ],
      "name": "addVoter",
      "outputs": [],
      "stateMutability": "nonpayable",
      "type": "function"
    },
    {
      "inputs": [
        {
          "internalType": "string",
          "name": "_desc",
          "type": "string"
        }
      ],
      "name": "addProposal",
      "outputs": [],
      "stateMutability": "nonpayable",
      "type": "function"
    },
    {
      "inputs": [
        {
          "internalType": "uint256",
          "name": "_id",
          "type": "uint256"
        }
      ],
      "name": "setVote",
      "outputs": [],
      "stateMutability": "nonpayable",
      "type": "function"
    },
    {
      "inputs": [],
      "name": "startProposalsRegistering",
      "outputs": [],
      "stateMutability": "nonpayable",
      "type": "function"
    },
    {
      "inputs": [],
      "name": "endProposalsRegistering",
      "outputs": [],
      "stateMutability": "nonpayable",
      "type": "function"
    },
    {
      "inputs": [],
      "name": "startVotingSession",
      "outputs": [],
      "stateMutability": "nonpayable",
      "type": "function"
    },
    {
      "inputs": [],
      "name": "endVotingSession",
      "outputs": [],
      "stateMutability": "nonpayable",
      "type": "function"
    },
    {
      "inputs": [],
      "name": "tallyVotesDraw",
      "outputs": [],
      "stateMutability": "nonpayable",
      "type": "function"
    }
  ],
  "bytecode": "0x60806040523480156200001157600080fd5b5062000032620000266200003860201b60201c565b6200004060201b60201c565b62000104565b600033905090565b60008060009054906101000a900473ffffffffffffffffffffffffffffffffffffffff169050816000806101000a81548173ffffffffffffffffffffffffffffffffffffffff021916908373ffffffffffffffffffffffffffffffffffffffff1602179055508173ffffffffffffffffffffffffffffffffffffffff168173ffffffffffffffffffffffffffffffffffffffff167f8be0079c531659141344cd1fd0a4f28419497f9722a3daafe3b4186f6b6457e060405160405180910390a35050565b612be880620001146000396000f3fe608060405234801561001057600080fd5b506004361061010b5760003560e01c8063a7bfab16116100a2578063d4f50f9811610071578063d4f50f9814610222578063ee74c67814610252578063f2fde38b1461025c578063f4ab9adf14610278578063f86c6779146102945761010b565b8063a7bfab16146101e6578063bdc01431146101f0578063c7038a4e1461020e578063c88af42f146102185761010b565b80638da5cb5b116100de5780638da5cb5b1461015c5780638e7ea5b21461017a578063a1edffa214610198578063a2788cce146101b65761010b565b8063230796ae146101105780632fdae3c51461012c5780633beee92e14610148578063715018a614610152575b600080fd5b61012a60048036038101906101259190611c04565b6102c5565b005b61014660048036038101906101419190611d77565b6105c1565b005b610150610804565b005b61015a610b5d565b005b610164610be5565b6040516101719190611e01565b60405180910390f35b610182610c0e565b60405161018f9190611fb2565b60405180910390f35b6101a0610d7e565b6040516101ad919061204b565b60405180910390f35b6101d060048036038101906101cb9190611c04565b610d91565b6040516101dd91906120a3565b60405180910390f35b6101ee610ef8565b005b6101f8611051565b60405161020591906120d4565b60405180910390f35b610216611057565b005b6102206111b1565b005b61023c6004803603810190610237919061211b565b61130b565b60405161024991906121a5565b60405180910390f35b61025a611433565b005b6102766004803603810190610271919061211b565b61158d565b005b610292600480360381019061028d919061211b565b611684565b005b6102ae60048036038101906102a99190611c04565b6118a1565b6040516102bc92919061220a565b60405180910390f35b600660003373ffffffffffffffffffffffffffffffffffffffff1673ffffffffffffffffffffffffffffffffffffffff16815260200190815260200160002060000160009054906101000a900460ff16610354576040517f08c379a000000000000000000000000000000000000000000000000000000000815260040161034b90612286565b60405180910390fd5b6003600581111561036857610367611fd4565b5b600460009054906101000a900460ff16600581111561038a57610389611fd4565b5b146103ca576040517f08c379a00000000000000000000000000000000000000000000000000000000081526004016103c190612318565b60405180910390fd5b60011515600660003373ffffffffffffffffffffffffffffffffffffffff1673ffffffffffffffffffffffffffffffffffffffff16815260200190815260200160002060000160019054906101000a900460ff16151503610460576040517f08c379a000000000000000000000000000000000000000000000000000000000815260040161045790612384565b60405180910390fd5b6005805490508111156104a8576040517f08c379a000000000000000000000000000000000000000000000000000000000815260040161049f906123f0565b60405180910390fd5b80600660003373ffffffffffffffffffffffffffffffffffffffff1673ffffffffffffffffffffffffffffffffffffffff168152602001908152602001600020600101819055506001600660003373ffffffffffffffffffffffffffffffffffffffff1673ffffffffffffffffffffffffffffffffffffffff16815260200190815260200160002060000160016101000a81548160ff0219169083151502179055506005818154811061055e5761055d612410565b5b906000526020600020906002020160010160008154809291906105809061246e565b91905055507f4d99b957a2bc29a30ebd96a7be8e68fe50a3c701db28a91436490b7d53870ca433826040516105b69291906124b6565b60405180910390a150565b600660003373ffffffffffffffffffffffffffffffffffffffff1673ffffffffffffffffffffffffffffffffffffffff16815260200190815260200160002060000160009054906101000a900460ff16610650576040517f08c379a000000000000000000000000000000000000000000000000000000000815260040161064790612286565b60405180910390fd5b6001600581111561066457610663611fd4565b5b600460009054906101000a900460ff16600581111561068657610685611fd4565b5b146106c6576040517f08c379a00000000000000000000000000000000000000000000000000000000081526004016106bd9061252b565b60405180910390fd5b6040516020016106d590612571565b60405160208183030381529060405280519060200120816040516020016106fc9190612591565b6040516020818303038152906040528051906020012003610752576040517f08c379a000000000000000000000000000000000000000000000000000000000815260040161074990612625565b60405180910390fd5b61075a611a29565b818160000181905250600581908060018154018082558091505060019003906000526020600020906002020160009091909190915060008201518160000190805190602001906107ab929190611a43565b506020820151816001015550507f92e393e9b54e2f801d3ea4beb0c5e71a21cc34a5d34b77d0fb8a3aa1650dc18f60016005805490506107eb9190612645565b6040516107f891906120d4565b60405180910390a15050565b61080c61195d565b73ffffffffffffffffffffffffffffffffffffffff1661082a610be5565b73ffffffffffffffffffffffffffffffffffffffff1614610880576040517f08c379a0000000000000000000000000000000000000000000000000000000008152600401610877906126c5565b60405180910390fd5b6004600581111561089457610893611fd4565b5b600460009054906101000a900460ff1660058111156108b6576108b5611fd4565b5b146108f6576040517f08c379a00000000000000000000000000000000000000000000000000000000081526004016108ed90612757565b60405180910390fd5b6000610900611ac9565b600080600090505b600580549050811015610a0257836005828154811061092a57610929612410565b5b9060005260206000209060020201600101540361096d578083836005811061095557610954612410565b5b60200201818152505081806109699061246e565b9250505b836005828154811061098257610981612410565b5b90600052602060002090600202016001015411156109ef576109a2611ac9565b925080836000600581106109b9576109b8612410565b5b602002018181525050600581815481106109d6576109d5612410565b5b9060005260206000209060020201600101549350600191505b80806109fa9061246e565b915050610908565b5060005b81811015610af1576001838260058110610a2357610a22612410565b5b6020020151908060018154018082558091505060019003906000526020600020016000909190919091505560026005848360058110610a6557610a64612410565b5b602002015181548110610a7b57610a7a612410565b5b906000526020600020906002020190806001815401808255809150506001900390600052602060002090600202016000909190919091506000820181600001908054610ac6906127a6565b610ad1929190611aeb565b506001820154816001015550508080610ae99061246e565b915050610a06565b506005600460006101000a81548160ff02191690836005811115610b1857610b17611fd4565b5b02179055507f0a97a4ee45751e2abf3e4fc8946939630b11b371ea8ae39ccdc3056e98f5cc3f60046005604051610b509291906127d7565b60405180910390a1505050565b610b6561195d565b73ffffffffffffffffffffffffffffffffffffffff16610b83610be5565b73ffffffffffffffffffffffffffffffffffffffff1614610bd9576040517f08c379a0000000000000000000000000000000000000000000000000000000008152600401610bd0906126c5565b60405180910390fd5b610be36000611965565b565b60008060009054906101000a900473ffffffffffffffffffffffffffffffffffffffff16905090565b6060600580811115610c2357610c22611fd4565b5b600460009054906101000a900460ff166005811115610c4557610c44611fd4565b5b14610c85576040517f08c379a0000000000000000000000000000000000000000000000000000000008152600401610c7c9061284c565b60405180910390fd5b6002805480602002602001604051908101604052809291908181526020016000905b82821015610d755783829060005260206000209060020201604051806040016040529081600082018054610cda906127a6565b80601f0160208091040260200160405190810160405280929190818152602001828054610d06906127a6565b8015610d535780601f10610d2857610100808354040283529160200191610d53565b820191906000526020600020905b815481529060010190602001808311610d3657829003601f168201915b5050505050815260200160018201548152505081526020019060010190610ca7565b50505050905090565b600460009054906101000a900460ff1681565b610d99611a29565b600660003373ffffffffffffffffffffffffffffffffffffffff1673ffffffffffffffffffffffffffffffffffffffff16815260200190815260200160002060000160009054906101000a900460ff16610e28576040517f08c379a0000000000000000000000000000000000000000000000000000000008152600401610e1f90612286565b60405180910390fd5b60058281548110610e3c57610e3b612410565b5b9060005260206000209060020201604051806040016040529081600082018054610e65906127a6565b80601f0160208091040260200160405190810160405280929190818152602001828054610e91906127a6565b8015610ede5780601f10610eb357610100808354040283529160200191610ede565b820191906000526020600020905b815481529060010190602001808311610ec157829003601f168201915b505050505081526020016001820154815250509050919050565b610f0061195d565b73ffffffffffffffffffffffffffffffffffffffff16610f1e610be5565b73ffffffffffffffffffffffffffffffffffffffff1614610f74576040517f08c379a0000000000000000000000000000000000000000000000000000000008152600401610f6b906126c5565b60405180910390fd5b60036005811115610f8857610f87611fd4565b5b600460009054906101000a900460ff166005811115610faa57610fa9611fd4565b5b14610fea576040517f08c379a0000000000000000000000000000000000000000000000000000000008152600401610fe190612318565b60405180910390fd5b60048060006101000a81548160ff0219169083600581111561100f5761100e611fd4565b5b02179055507f0a97a4ee45751e2abf3e4fc8946939630b11b371ea8ae39ccdc3056e98f5cc3f600360046040516110479291906127d7565b60405180910390a1565b60035481565b61105f61195d565b73ffffffffffffffffffffffffffffffffffffffff1661107d610be5565b73ffffffffffffffffffffffffffffffffffffffff16146110d3576040517f08c379a00000000000000000000000000000000000000000000000000000000081526004016110ca906126c5565b60405180910390fd5b600060058111156110e7576110e6611fd4565b5b600460009054906101000a900460ff16600581111561110957611108611fd4565b5b14611149576040517f08c379a0000000000000000000000000000000000000000000000000000000008152600401611140906128de565b60405180910390fd5b6001600460006101000a81548160ff0219169083600581111561116f5761116e611fd4565b5b02179055507f0a97a4ee45751e2abf3e4fc8946939630b11b371ea8ae39ccdc3056e98f5cc3f600060016040516111a79291906127d7565b60405180910390a1565b6111b961195d565b73ffffffffffffffffffffffffffffffffffffffff166111d7610be5565b73ffffffffffffffffffffffffffffffffffffffff161461122d576040517f08c379a0000000000000000000000000000000000000000000000000000000008152600401611224906126c5565b60405180910390fd5b6001600581111561124157611240611fd4565b5b600460009054906101000a900460ff16600581111561126357611262611fd4565b5b146112a3576040517f08c379a000000000000000000000000000000000000000000000000000000000815260040161129a90612970565b60405180910390fd5b6002600460006101000a81548160ff021916908360058111156112c9576112c8611fd4565b5b02179055507f0a97a4ee45751e2abf3e4fc8946939630b11b371ea8ae39ccdc3056e98f5cc3f600160026040516113019291906127d7565b60405180910390a1565b611313611b78565b600660003373ffffffffffffffffffffffffffffffffffffffff1673ffffffffffffffffffffffffffffffffffffffff16815260200190815260200160002060000160009054906101000a900460ff166113a2576040517f08c379a000000000000000000000000000000000000000000000000000000000815260040161139990612286565b60405180910390fd5b600660008373ffffffffffffffffffffffffffffffffffffffff1673ffffffffffffffffffffffffffffffffffffffff1681526020019081526020016000206040518060600160405290816000820160009054906101000a900460ff161515151581526020016000820160019054906101000a900460ff161515151581526020016001820154815250509050919050565b61143b61195d565b73ffffffffffffffffffffffffffffffffffffffff16611459610be5565b73ffffffffffffffffffffffffffffffffffffffff16146114af576040517f08c379a00000000000000000000000000000000000000000000000000000000081526004016114a6906126c5565b60405180910390fd5b600260058111156114c3576114c2611fd4565b5b600460009054906101000a900460ff1660058111156114e5576114e4611fd4565b5b14611525576040517f08c379a000000000000000000000000000000000000000000000000000000000815260040161151c90612a02565b60405180910390fd5b6003600460006101000a81548160ff0219169083600581111561154b5761154a611fd4565b5b02179055507f0a97a4ee45751e2abf3e4fc8946939630b11b371ea8ae39ccdc3056e98f5cc3f600260036040516115839291906127d7565b60405180910390a1565b61159561195d565b73ffffffffffffffffffffffffffffffffffffffff166115b3610be5565b73ffffffffffffffffffffffffffffffffffffffff1614611609576040517f08c379a0000000000000000000000000000000000000000000000000000000008152600401611600906126c5565b60405180910390fd5b600073ffffffffffffffffffffffffffffffffffffffff168173ffffffffffffffffffffffffffffffffffffffff1603611678576040517f08c379a000000000000000000000000000000000000000000000000000000000815260040161166f90612a94565b60405180910390fd5b61168181611965565b50565b61168c61195d565b73ffffffffffffffffffffffffffffffffffffffff166116aa610be5565b73ffffffffffffffffffffffffffffffffffffffff1614611700576040517f08c379a00000000000000000000000000000000000000000000000000000000081526004016116f7906126c5565b60405180910390fd5b6000600581111561171457611713611fd4565b5b600460009054906101000a900460ff16600581111561173657611735611fd4565b5b14611776576040517f08c379a000000000000000000000000000000000000000000000000000000000815260040161176d90612b26565b60405180910390fd5b60011515600660008373ffffffffffffffffffffffffffffffffffffffff1673ffffffffffffffffffffffffffffffffffffffff16815260200190815260200160002060000160009054906101000a900460ff1615150361180c576040517f08c379a000000000000000000000000000000000000000000000000000000000815260040161180390612b92565b60405180910390fd5b6001600660008373ffffffffffffffffffffffffffffffffffffffff1673ffffffffffffffffffffffffffffffffffffffff16815260200190815260200160002060000160006101000a81548160ff0219169083151502179055507fb6be2187d059cc2a55fe29e0e503b566e1e0f8c8780096e185429350acffd3dd816040516118969190611e01565b60405180910390a150565b600581815481106118b157600080fd5b90600052602060002090600202016000915090508060000180546118d4906127a6565b80601f0160208091040260200160405190810160405280929190818152602001828054611900906127a6565b801561194d5780601f106119225761010080835404028352916020019161194d565b820191906000526020600020905b81548152906001019060200180831161193057829003601f168201915b5050505050908060010154905082565b600033905090565b60008060009054906101000a900473ffffffffffffffffffffffffffffffffffffffff169050816000806101000a81548173ffffffffffffffffffffffffffffffffffffffff021916908373ffffffffffffffffffffffffffffffffffffffff1602179055508173ffffffffffffffffffffffffffffffffffffffff168173ffffffffffffffffffffffffffffffffffffffff167f8be0079c531659141344cd1fd0a4f28419497f9722a3daafe3b4186f6b6457e060405160405180910390a35050565b604051806040016040528060608152602001600081525090565b828054611a4f906127a6565b90600052602060002090601f016020900481019282611a715760008555611ab8565b82601f10611a8a57805160ff1916838001178555611ab8565b82800160010185558215611ab8579182015b82811115611ab7578251825591602001919060010190611a9c565b5b509050611ac59190611b9d565b5090565b6040518060a00160405280600590602082028036833780820191505090505090565b828054611af7906127a6565b90600052602060002090601f016020900481019282611b195760008555611b67565b82601f10611b2a5780548555611b67565b82800160010185558215611b6757600052602060002091601f016020900482015b82811115611b66578254825591600101919060010190611b4b565b5b509050611b749190611b9d565b5090565b6040518060600160405280600015158152602001600015158152602001600081525090565b5b80821115611bb6576000816000905550600101611b9e565b5090565b6000604051905090565b600080fd5b600080fd5b6000819050919050565b611be181611bce565b8114611bec57600080fd5b50565b600081359050611bfe81611bd8565b92915050565b600060208284031215611c1a57611c19611bc4565b5b6000611c2884828501611bef565b91505092915050565b600080fd5b600080fd5b6000601f19601f8301169050919050565b7f4e487b7100000000000000000000000000000000000000000000000000000000600052604160045260246000fd5b611c8482611c3b565b810181811067ffffffffffffffff82111715611ca357611ca2611c4c565b5b80604052505050565b6000611cb6611bba565b9050611cc28282611c7b565b919050565b600067ffffffffffffffff821115611ce257611ce1611c4c565b5b611ceb82611c3b565b9050602081019050919050565b82818337600083830152505050565b6000611d1a611d1584611cc7565b611cac565b905082815260208101848484011115611d3657611d35611c36565b5b611d41848285611cf8565b509392505050565b600082601f830112611d5e57611d5d611c31565b5b8135611d6e848260208601611d07565b91505092915050565b600060208284031215611d8d57611d8c611bc4565b5b600082013567ffffffffffffffff811115611dab57611daa611bc9565b5b611db784828501611d49565b91505092915050565b600073ffffffffffffffffffffffffffffffffffffffff82169050919050565b6000611deb82611dc0565b9050919050565b611dfb81611de0565b82525050565b6000602082019050611e166000830184611df2565b92915050565b600081519050919050565b600082825260208201905092915050565b6000819050602082019050919050565b600081519050919050565b600082825260208201905092915050565b60005b83811015611e82578082015181840152602081019050611e67565b83811115611e91576000848401525b50505050565b6000611ea282611e48565b611eac8185611e53565b9350611ebc818560208601611e64565b611ec581611c3b565b840191505092915050565b611ed981611bce565b82525050565b60006040830160008301518482036000860152611efc8282611e97565b9150506020830151611f116020860182611ed0565b508091505092915050565b6000611f288383611edf565b905092915050565b6000602082019050919050565b6000611f4882611e1c565b611f528185611e27565b935083602082028501611f6485611e38565b8060005b85811015611fa05784840389528151611f818582611f1c565b9450611f8c83611f30565b925060208a01995050600181019050611f68565b50829750879550505050505092915050565b60006020820190508181036000830152611fcc8184611f3d565b905092915050565b7f4e487b7100000000000000000000000000000000000000000000000000000000600052602160045260246000fd5b6006811061201457612013611fd4565b5b50565b600081905061202582612003565b919050565b600061203582612017565b9050919050565b6120458161202a565b82525050565b6000602082019050612060600083018461203c565b92915050565b600060408301600083015184820360008601526120838282611e97565b91505060208301516120986020860182611ed0565b508091505092915050565b600060208201905081810360008301526120bd8184612066565b905092915050565b6120ce81611bce565b82525050565b60006020820190506120e960008301846120c5565b92915050565b6120f881611de0565b811461210357600080fd5b50565b600081359050612115816120ef565b92915050565b60006020828403121561213157612130611bc4565b5b600061213f84828501612106565b91505092915050565b60008115159050919050565b61215d81612148565b82525050565b6060820160008201516121796000850182612154565b50602082015161218c6020850182612154565b50604082015161219f6040850182611ed0565b50505050565b60006060820190506121ba6000830184612163565b92915050565b600082825260208201905092915050565b60006121dc82611e48565b6121e681856121c0565b93506121f6818560208601611e64565b6121ff81611c3b565b840191505092915050565b6000604082019050818103600083015261222481856121d1565b905061223360208301846120c5565b9392505050565b7f596f75277265206e6f74206120766f7465720000000000000000000000000000600082015250565b60006122706012836121c0565b915061227b8261223a565b602082019050919050565b6000602082019050818103600083015261229f81612263565b9050919050565b7f566f74696e672073657373696f6e20686176656e74207374617274656420796560008201527f7400000000000000000000000000000000000000000000000000000000000000602082015250565b60006123026021836121c0565b915061230d826122a6565b604082019050919050565b60006020820190508181036000830152612331816122f5565b9050919050565b7f596f75206861766520616c726561647920766f74656400000000000000000000600082015250565b600061236e6016836121c0565b915061237982612338565b602082019050919050565b6000602082019050818103600083015261239d81612361565b9050919050565b7f50726f706f73616c206e6f7420666f756e640000000000000000000000000000600082015250565b60006123da6012836121c0565b91506123e5826123a4565b602082019050919050565b60006020820190508181036000830152612409816123cd565b9050919050565b7f4e487b7100000000000000000000000000000000000000000000000000000000600052603260045260246000fd5b7f4e487b7100000000000000000000000000000000000000000000000000000000600052601160045260246000fd5b600061247982611bce565b91507fffffffffffffffffffffffffffffffffffffffffffffffffffffffffffffffff82036124ab576124aa61243f565b5b600182019050919050565b60006040820190506124cb6000830185611df2565b6124d860208301846120c5565b9392505050565b7f50726f706f73616c7320617265206e6f7420616c6c6f77656420796574000000600082015250565b6000612515601d836121c0565b9150612520826124df565b602082019050919050565b6000602082019050818103600083015261254481612508565b9050919050565b50565b600061255b6000836121c0565b91506125668261254b565b600082019050919050565b6000602082019050818103600083015261258a8161254e565b9050919050565b600060208201905081810360008301526125ab81846121d1565b905092915050565b7f566f7573206e6520706f7576657a20706173206e65207269656e2070726f706f60008201527f7365720000000000000000000000000000000000000000000000000000000000602082015250565b600061260f6023836121c0565b915061261a826125b3565b604082019050919050565b6000602082019050818103600083015261263e81612602565b9050919050565b600061265082611bce565b915061265b83611bce565b92508282101561266e5761266d61243f565b5b828203905092915050565b7f4f776e61626c653a2063616c6c6572206973206e6f7420746865206f776e6572600082015250565b60006126af6020836121c0565b91506126ba82612679565b602082019050919050565b600060208201905081810360008301526126de816126a2565b9050919050565b7f43757272656e7420737461747573206973206e6f7420766f74696e672073657360008201527f73696f6e20656e64656400000000000000000000000000000000000000000000602082015250565b6000612741602a836121c0565b915061274c826126e5565b604082019050919050565b6000602082019050818103600083015261277081612734565b9050919050565b7f4e487b7100000000000000000000000000000000000000000000000000000000600052602260045260246000fd5b600060028204905060018216806127be57607f821691505b6020821081036127d1576127d0612777565b5b50919050565b60006040820190506127ec600083018561203c565b6127f9602083018461203c565b9392505050565b7f566f74657320617265206e6f742074616c6c6965642079657400000000000000600082015250565b60006128366019836121c0565b915061284182612800565b602082019050919050565b6000602082019050818103600083015261286581612829565b9050919050565b7f5265676973746572696e672070726f706f73616c732063616e7420626520737460008201527f6172746564206e6f770000000000000000000000000000000000000000000000602082015250565b60006128c86029836121c0565b91506128d38261286c565b604082019050919050565b600060208201905081810360008301526128f7816128bb565b9050919050565b7f5265676973746572696e672070726f706f73616c7320686176656e742073746160008201527f7274656420796574000000000000000000000000000000000000000000000000602082015250565b600061295a6028836121c0565b9150612965826128fe565b604082019050919050565b600060208201905081810360008301526129898161294d565b9050919050565b7f5265676973746572696e672070726f706f73616c73207068617365206973206e60008201527f6f742066696e6973686564000000000000000000000000000000000000000000602082015250565b60006129ec602b836121c0565b91506129f782612990565b604082019050919050565b60006020820190508181036000830152612a1b816129df565b9050919050565b7f4f776e61626c653a206e6577206f776e657220697320746865207a65726f206160008201527f6464726573730000000000000000000000000000000000000000000000000000602082015250565b6000612a7e6026836121c0565b9150612a8982612a22565b604082019050919050565b60006020820190508181036000830152612aad81612a71565b9050919050565b7f566f7465727320726567697374726174696f6e206973206e6f74206f70656e2060008201527f7965740000000000000000000000000000000000000000000000000000000000602082015250565b6000612b106023836121c0565b9150612b1b82612ab4565b604082019050919050565b60006020820190508181036000830152612b3f81612b03565b9050919050565b7f416c726561647920726567697374657265640000000000000000000000000000600082015250565b6000612b7c6012836121c0565b9150612b8782612b46565b602082019050919050565b60006020820190508181036000830152612bab81612b6f565b905091905056fea264697066735822122080ce3b1d628575e4c4d090b0474435f22463b3b85f21b01c5886a2b4bcf18f5364736f6c634300080d0033",
  "immutableReferences": {},
  "source": "// SPDX-License-Identifier: MIT\r\n\r\npragma solidity 0.8.13 ;\r\nimport \"../node_modules/@openzeppelin/contracts/access/Ownable.sol\";\r\n\r\ncontract Voting is Ownable {\r\n\r\n    // arrays for draw, uint for single\r\n    uint[] winningProposalsID;\r\n    Proposal[] winningProposals;\r\n    uint public winningProposalID;\r\n    \r\n    struct Voter {\r\n        bool isRegistered;\r\n        bool hasVoted;\r\n        uint votedProposalId;\r\n    }\r\n\r\n    struct Proposal {\r\n        string description;\r\n        uint voteCount;\r\n    }\r\n\r\n    enum  WorkflowStatus {\r\n        RegisteringVoters,\r\n        ProposalsRegistrationStarted,\r\n        ProposalsRegistrationEnded,\r\n        VotingSessionStarted,\r\n        VotingSessionEnded,\r\n        VotesTallied\r\n    }\r\n\r\n    WorkflowStatus public workflowStatus;\r\n    Proposal[] public proposalsArray;\r\n    mapping (address => Voter) private voters;\r\n\r\n\r\n    event VoterRegistered(address voterAddress); \r\n    event WorkflowStatusChange(WorkflowStatus previousStatus, WorkflowStatus newStatus);\r\n    event ProposalRegistered(uint proposalId);\r\n    event Voted (address voter, uint proposalId);\r\n\r\n    modifier onlyVoters() {\r\n        require(voters[msg.sender].isRegistered, \"You're not a voter\");\r\n        _;\r\n    }\r\n    \r\n    // on peut faire un modifier pour les tats\r\n\r\n    // ::::::::::::: GETTERS ::::::::::::: //\r\n\r\n    function getVoter(address _addr) external onlyVoters view returns (Voter memory) {\r\n        return voters[_addr];\r\n    }\r\n    \r\n    function getOneProposal(uint _id) external onlyVoters view returns (Proposal memory) {\r\n        return proposalsArray[_id];\r\n    }\r\n\r\n    function getWinner() external view returns (Proposal[] memory) {\r\n        require(workflowStatus == WorkflowStatus.VotesTallied, 'Votes are not tallied yet');\r\n        return winningProposals;\r\n    }\r\n \r\n    // ::::::::::::: REGISTRATION ::::::::::::: // \r\n\r\n    function addVoter(address _addr) public onlyOwner {\r\n        require(workflowStatus == WorkflowStatus.RegisteringVoters, 'Voters registration is not open yet');\r\n        require(voters[_addr].isRegistered != true, 'Already registered');\r\n    \r\n        voters[_addr].isRegistered = true;\r\n        emit VoterRegistered(_addr);\r\n    }\r\n \r\n    /* facultatif\r\n     * function deleteVoter(address _addr) external onlyOwner {\r\n     *   require(workflowStatus == WorkflowStatus.RegisteringVoters, 'Voters registration is not open yet');\r\n     *   require(voters[_addr].isRegistered == true, 'Not registered.');\r\n     *   voters[_addr].isRegistered = false;\r\n     *  emit VoterRegistered(_addr);\r\n    }*/\r\n\r\n    // ::::::::::::: PROPOSAL ::::::::::::: // \r\n\r\n    function addProposal(string memory _desc) external onlyVoters {\r\n        require(workflowStatus == WorkflowStatus.ProposalsRegistrationStarted, 'Proposals are not allowed yet');\r\n        require(keccak256(abi.encode(_desc)) != keccak256(abi.encode(\"\")), 'Vous ne pouvez pas ne rien proposer'); // facultatif\r\n        // voir que desc est different des autres\r\n\r\n        Proposal memory proposal;\r\n        proposal.description = _desc;\r\n        proposalsArray.push(proposal);\r\n        emit ProposalRegistered(proposalsArray.length-1);\r\n    }\r\n\r\n    // ::::::::::::: VOTE ::::::::::::: //\r\n\r\n    function setVote( uint _id) external onlyVoters {\r\n        require(workflowStatus == WorkflowStatus.VotingSessionStarted, 'Voting session havent started yet');\r\n        require(voters[msg.sender].hasVoted != true, 'You have already voted');\r\n        require(_id <= proposalsArray.length, 'Proposal not found'); // pas oblig, et pas besoin du >0 car uint\r\n\r\n        voters[msg.sender].votedProposalId = _id;\r\n        voters[msg.sender].hasVoted = true;\r\n        proposalsArray[_id].voteCount++;\r\n\r\n        emit Voted(msg.sender, _id);\r\n    }\r\n\r\n    // ::::::::::::: STATE ::::::::::::: //\r\n\r\n    /* on pourrait factoriser tout a: par exemple:\r\n\r\n    *  modifier checkWorkflowStatus(WorkflowStatus _num) {\r\n    *  require (workflowStatus=_num-1, \"bad workflowstatus\");\r\n    *  _;\r\n    *  }\r\n\r\n    *  function setWorkflowStatus(WorkflowStatus _num) public onlyOwner {\r\n    *    WorkflowStatus pnum = workflowStatus;\r\n    *    workflowStatus = _num;\r\n    *    emit WorkflowStatusChange(pnum, workflowStatus);\r\n        } */ \r\n\r\n\r\n    function startProposalsRegistering() external onlyOwner {\r\n        require(workflowStatus == WorkflowStatus.RegisteringVoters, 'Registering proposals cant be started now');\r\n        workflowStatus = WorkflowStatus.ProposalsRegistrationStarted;\r\n        emit WorkflowStatusChange(WorkflowStatus.RegisteringVoters, WorkflowStatus.ProposalsRegistrationStarted);\r\n    }\r\n\r\n    function endProposalsRegistering() external onlyOwner {\r\n        require(workflowStatus == WorkflowStatus.ProposalsRegistrationStarted, 'Registering proposals havent started yet');\r\n        workflowStatus = WorkflowStatus.ProposalsRegistrationEnded;\r\n        emit WorkflowStatusChange(WorkflowStatus.ProposalsRegistrationStarted, WorkflowStatus.ProposalsRegistrationEnded);\r\n    }\r\n\r\n    function startVotingSession() external onlyOwner {\r\n        require(workflowStatus == WorkflowStatus.ProposalsRegistrationEnded, 'Registering proposals phase is not finished');\r\n        workflowStatus = WorkflowStatus.VotingSessionStarted;\r\n        emit WorkflowStatusChange(WorkflowStatus.ProposalsRegistrationEnded, WorkflowStatus.VotingSessionStarted);\r\n    }\r\n\r\n    function endVotingSession() external onlyOwner {\r\n        require(workflowStatus == WorkflowStatus.VotingSessionStarted, 'Voting session havent started yet');\r\n        workflowStatus = WorkflowStatus.VotingSessionEnded;\r\n        emit WorkflowStatusChange(WorkflowStatus.VotingSessionStarted, WorkflowStatus.VotingSessionEnded);\r\n    }\r\n\r\n    function tallyVotesDraw() external onlyOwner {\r\n       require(workflowStatus == WorkflowStatus.VotingSessionEnded, \"Current status is not voting session ended\");\r\n        uint highestCount;\r\n        uint[5]memory winners; // egalite entre 5 personnes max\r\n        uint nbWinners;\r\n        for (uint i = 0; i < proposalsArray.length; i++) {\r\n            if (proposalsArray[i].voteCount == highestCount) {\r\n                winners[nbWinners]=i;\r\n                nbWinners++;\r\n            }\r\n            if (proposalsArray[i].voteCount > highestCount) {\r\n                delete winners;\r\n                winners[0]= i;\r\n                highestCount = proposalsArray[i].voteCount;\r\n                nbWinners=1;\r\n            }\r\n        }\r\n        for(uint j=0;j<nbWinners;j++){\r\n            winningProposalsID.push(winners[j]);\r\n            winningProposals.push(proposalsArray[winners[j]]);\r\n        }\r\n        workflowStatus = WorkflowStatus.VotesTallied;\r\n        emit WorkflowStatusChange(WorkflowStatus.VotingSessionEnded, WorkflowStatus.VotesTallied);\r\n    }\r\n\r\n  /*  function tallyVotes() external onlyOwner {\r\n    *    require(workflowStatus == WorkflowStatus.VotingSessionEnded, \"Current status is not voting session ended\");\r\n    *   uint _winningProposalId;\r\n    *  for (uint256 p = 0; p < proposalsArray.length; p++) {\r\n    *       if (proposalsArray[p].voteCount > proposalsArray[_winningProposalId].voteCount) {\r\n    *           _winningProposalId = p;\r\n    *      }\r\n    *   }\r\n    *   winningProposalID = _winningProposalId;\r\n    *   \r\n    *   workflowStatus = WorkflowStatus.VotesTallied;\r\n    *   emit WorkflowStatusChange(WorkflowStatus.VotingSessionEnded, WorkflowStatus.VotesTallied);\r\n    *}\r\n    */\r\n}",
  "sourcePath": "D:\\dev\\Study\\VoteTest\\contracts\\Voting.sol",
  "compiler": {
    "name": "solc",
    "version": "0.8.13+commit.abaa5c0e.Emscripten.clang"
  },
  "schemaVersion": "3.4.6",
  "updatedAt": "2022-04-05T12:42:04.326Z",
  "networkType": "ethereum",
  "devdoc": {
    "kind": "dev",
    "methods": {
      "owner()": {
        "details": "Returns the address of the current owner."
      },
      "renounceOwnership()": {
        "details": "Leaves the contract without owner. It will not be possible to call `onlyOwner` functions anymore. Can only be called by the current owner. NOTE: Renouncing ownership will leave the contract without an owner, thereby removing any functionality that is only available to the owner."
      },
      "transferOwnership(address)": {
        "details": "Transfers ownership of the contract to a new account (`newOwner`). Can only be called by the current owner."
      }
    },
    "version": 1
  },
  "userdoc": {
    "kind": "user",
    "methods": {},
    "version": 1
  }
}